{
  "contractName": "ERC20WithString",
  "abi": [
    {
      "inputs": [
        {
          "internalType": "string",
          "name": "devName",
          "type": "string"
        },
        {
          "internalType": "string",
          "name": "erc20Name",
          "type": "string"
        },
        {
          "internalType": "string",
          "name": "symbol",
          "type": "string"
        }
      ],
      "stateMutability": "nonpayable",
      "type": "constructor"
    },
    {
      "anonymous": false,
      "inputs": [
        {
          "indexed": true,
          "internalType": "address",
          "name": "owner",
          "type": "address"
        },
        {
          "indexed": true,
          "internalType": "address",
          "name": "spender",
          "type": "address"
        },
        {
          "indexed": false,
          "internalType": "uint256",
          "name": "value",
          "type": "uint256"
        }
      ],
      "name": "Approval",
      "type": "event"
    },
    {
      "anonymous": false,
      "inputs": [
        {
          "indexed": true,
          "internalType": "address",
          "name": "from",
          "type": "address"
        },
        {
          "indexed": true,
          "internalType": "address",
          "name": "to",
          "type": "address"
        },
        {
          "indexed": false,
          "internalType": "uint256",
          "name": "value",
          "type": "uint256"
        }
      ],
      "name": "Transfer",
      "type": "event"
    },
    {
      "inputs": [
        {
          "internalType": "address",
          "name": "owner",
          "type": "address"
        },
        {
          "internalType": "address",
          "name": "spender",
          "type": "address"
        }
      ],
      "name": "allowance",
      "outputs": [
        {
          "internalType": "uint256",
          "name": "",
          "type": "uint256"
        }
      ],
      "stateMutability": "view",
      "type": "function",
      "constant": true
    },
    {
      "inputs": [
        {
          "internalType": "address",
          "name": "spender",
          "type": "address"
        },
        {
          "internalType": "uint256",
          "name": "amount",
          "type": "uint256"
        }
      ],
      "name": "approve",
      "outputs": [
        {
          "internalType": "bool",
          "name": "",
          "type": "bool"
        }
      ],
      "stateMutability": "nonpayable",
      "type": "function"
    },
    {
      "inputs": [
        {
          "internalType": "address",
          "name": "account",
          "type": "address"
        }
      ],
      "name": "balanceOf",
      "outputs": [
        {
          "internalType": "uint256",
          "name": "",
          "type": "uint256"
        }
      ],
      "stateMutability": "view",
      "type": "function",
      "constant": true
    },
    {
      "inputs": [],
      "name": "decimals",
      "outputs": [
        {
          "internalType": "uint8",
          "name": "",
          "type": "uint8"
        }
      ],
      "stateMutability": "view",
      "type": "function",
      "constant": true
    },
    {
      "inputs": [
        {
          "internalType": "address",
          "name": "spender",
          "type": "address"
        },
        {
          "internalType": "uint256",
          "name": "subtractedValue",
          "type": "uint256"
        }
      ],
      "name": "decreaseAllowance",
      "outputs": [
        {
          "internalType": "bool",
          "name": "",
          "type": "bool"
        }
      ],
      "stateMutability": "nonpayable",
      "type": "function"
    },
    {
      "inputs": [
        {
          "internalType": "address",
          "name": "spender",
          "type": "address"
        },
        {
          "internalType": "uint256",
          "name": "addedValue",
          "type": "uint256"
        }
      ],
      "name": "increaseAllowance",
      "outputs": [
        {
          "internalType": "bool",
          "name": "",
          "type": "bool"
        }
      ],
      "stateMutability": "nonpayable",
      "type": "function"
    },
    {
      "inputs": [],
      "name": "name",
      "outputs": [
        {
          "internalType": "string",
          "name": "",
          "type": "string"
        }
      ],
      "stateMutability": "view",
      "type": "function",
      "constant": true
    },
    {
      "inputs": [],
      "name": "symbol",
      "outputs": [
        {
          "internalType": "string",
          "name": "",
          "type": "string"
        }
      ],
      "stateMutability": "view",
      "type": "function",
      "constant": true
    },
    {
      "inputs": [],
      "name": "totalSupply",
      "outputs": [
        {
          "internalType": "uint256",
          "name": "",
          "type": "uint256"
        }
      ],
      "stateMutability": "view",
      "type": "function",
      "constant": true
    },
    {
      "inputs": [
        {
          "internalType": "address",
          "name": "recipient",
          "type": "address"
        },
        {
          "internalType": "uint256",
          "name": "amount",
          "type": "uint256"
        }
      ],
      "name": "transfer",
      "outputs": [
        {
          "internalType": "bool",
          "name": "",
          "type": "bool"
        }
      ],
      "stateMutability": "nonpayable",
      "type": "function"
    },
    {
      "inputs": [
        {
          "internalType": "address",
          "name": "sender",
          "type": "address"
        },
        {
          "internalType": "address",
          "name": "recipient",
          "type": "address"
        },
        {
          "internalType": "uint256",
          "name": "amount",
          "type": "uint256"
        }
      ],
      "name": "transferFrom",
      "outputs": [
        {
          "internalType": "bool",
          "name": "",
          "type": "bool"
        }
      ],
      "stateMutability": "nonpayable",
      "type": "function"
    },
    {
      "inputs": [],
      "name": "getDevName",
      "outputs": [
        {
          "internalType": "string",
          "name": "",
          "type": "string"
        }
      ],
      "stateMutability": "view",
      "type": "function",
      "constant": true
    }
  ],
  "bytecode": "0x60806040523480156200001157600080fd5b5060405162000e1c38038062000e1c8339810160408190526200003491620002c5565b8151829082906200004d90600390602085019062000174565b5080516200006390600490602084019062000174565b505083516200007b9150600590602086019062000174565b50620000923369d3c21bcecceda10000006200009b565b5050506200040a565b6001600160a01b038216620000cd5760405162461bcd60e51b8152600401620000c49062000352565b60405180910390fd5b620000db600083836200016f565b8060026000828254620000ef919062000392565b90915550506001600160a01b038216600090815260208190526040812080548392906200011e90849062000392565b90915550506040516001600160a01b038316906000907fddf252ad1be2c89b69c2b068fc378daa952ba7f163c4a11628f55a4df523b3ef906200016390859062000389565b60405180910390a35050565b505050565b8280546200018290620003b7565b90600052602060002090601f016020900481019282620001a65760008555620001f1565b82601f10620001c157805160ff1916838001178555620001f1565b82800160010185558215620001f1579182015b82811115620001f1578251825591602001919060010190620001d4565b50620001ff92915062000203565b5090565b5b80821115620001ff576000815560010162000204565b600082601f8301126200022b578081fd5b81516001600160401b0380821115620002485762000248620003f4565b6040516020601f8401601f1916820181018381118382101715620002705762000270620003f4565b604052838252858401810187101562000287578485fd5b8492505b83831015620002aa57858301810151828401820152918201916200028b565b83831115620002bb57848185840101525b5095945050505050565b600080600060608486031215620002da578283fd5b83516001600160401b0380821115620002f1578485fd5b620002ff878388016200021a565b9450602086015191508082111562000315578384fd5b62000323878388016200021a565b9350604086015191508082111562000339578283fd5b5062000348868287016200021a565b9150509250925092565b6020808252601f908201527f45524332303a206d696e7420746f20746865207a65726f206164647265737300604082015260600190565b90815260200190565b60008219821115620003b257634e487b7160e01b81526011600452602481fd5b500190565b600281046001821680620003cc57607f821691505b60208210811415620003ee57634e487b7160e01b600052602260045260246000fd5b50919050565b634e487b7160e01b600052604160045260246000fd5b610a02806200041a6000396000f3fe608060405234801561001057600080fd5b50600436106100b45760003560e01c806370a082311161007157806370a082311461014757806395d89b411461015a578063a457c2d714610162578063a9059cbb14610175578063dd62ed3e14610188578063e0c9e84d1461019b576100b4565b806306fdde03146100b9578063095ea7b3146100d757806318160ddd146100f757806323b872dd1461010c578063313ce5671461011f5780633950935114610134575b600080fd5b6100c16101a3565b6040516100ce9190610701565b60405180910390f35b6100ea6100e53660046106cd565b610235565b6040516100ce91906106f6565b6100ff610252565b6040516100ce9190610935565b6100ea61011a366004610692565b610258565b6101276102f8565b6040516100ce919061093e565b6100ea6101423660046106cd565b6102fd565b6100ff61015536600461063f565b61034c565b6100c161036b565b6100ea6101703660046106cd565b61037a565b6100ea6101833660046106cd565b6103f5565b6100ff610196366004610660565b610409565b6100c1610434565b6060600380546101b29061097b565b80601f01602080910402602001604051908101604052809291908181526020018280546101de9061097b565b801561022b5780601f106102005761010080835404028352916020019161022b565b820191906000526020600020905b81548152906001019060200180831161020e57829003601f168201915b5050505050905090565b6000610249610242610443565b8484610447565b50600192915050565b60025490565b60006102658484846104fb565b6001600160a01b038416600090815260016020526040812081610286610443565b6001600160a01b03166001600160a01b03168152602001908152602001600020549050828110156102d25760405162461bcd60e51b81526004016102c99061081f565b60405180910390fd5b6102ed856102de610443565b6102e88685610964565b610447565b506001949350505050565b601290565b600061024961030a610443565b848460016000610318610443565b6001600160a01b03908116825260208083019390935260409182016000908120918b16815292529020546102e8919061094c565b6001600160a01b0381166000908152602081905260409020545b919050565b6060600480546101b29061097b565b60008060016000610389610443565b6001600160a01b03908116825260208083019390935260409182016000908120918816815292529020549050828110156103d55760405162461bcd60e51b81526004016102c9906108f0565b6103eb6103e0610443565b856102e88685610964565b5060019392505050565b6000610249610402610443565b84846104fb565b6001600160a01b03918216600090815260016020908152604080832093909416825291909152205490565b6060600580546101b29061097b565b3390565b6001600160a01b03831661046d5760405162461bcd60e51b81526004016102c9906108ac565b6001600160a01b0382166104935760405162461bcd60e51b81526004016102c990610797565b6001600160a01b0380841660008181526001602090815260408083209487168084529490915290819020849055517f8c5be1e5ebec7d5bd14f71427d1e84f3dd0314c0f7b2291e5b200ac8c7c3b925906104ee908590610935565b60405180910390a3505050565b6001600160a01b0383166105215760405162461bcd60e51b81526004016102c990610867565b6001600160a01b0382166105475760405162461bcd60e51b81526004016102c990610754565b610552838383610623565b6001600160a01b0383166000908152602081905260409020548181101561058b5760405162461bcd60e51b81526004016102c9906107d9565b6105958282610964565b6001600160a01b0380861660009081526020819052604080822093909355908516815290812080548492906105cb90849061094c565b92505081905550826001600160a01b0316846001600160a01b03167fddf252ad1be2c89b69c2b068fc378daa952ba7f163c4a11628f55a4df523b3ef846040516106159190610935565b60405180910390a350505050565b505050565b80356001600160a01b038116811461036657600080fd5b600060208284031215610650578081fd5b61065982610628565b9392505050565b60008060408385031215610672578081fd5b61067b83610628565b915061068960208401610628565b90509250929050565b6000806000606084860312156106a6578081fd5b6106af84610628565b92506106bd60208501610628565b9150604084013590509250925092565b600080604083850312156106df578182fd5b6106e883610628565b946020939093013593505050565b901515815260200190565b6000602080835283518082850152825b8181101561072d57858101830151858201604001528201610711565b8181111561073e5783604083870101525b50601f01601f1916929092016040019392505050565b60208082526023908201527f45524332303a207472616e7366657220746f20746865207a65726f206164647260408201526265737360e81b606082015260800190565b60208082526022908201527f45524332303a20617070726f766520746f20746865207a65726f206164647265604082015261737360f01b606082015260800190565b60208082526026908201527f45524332303a207472616e7366657220616d6f756e7420657863656564732062604082015265616c616e636560d01b606082015260800190565b60208082526028908201527f45524332303a207472616e7366657220616d6f756e74206578636565647320616040820152676c6c6f77616e636560c01b606082015260800190565b60208082526025908201527f45524332303a207472616e736665722066726f6d20746865207a65726f206164604082015264647265737360d81b606082015260800190565b60208082526024908201527f45524332303a20617070726f76652066726f6d20746865207a65726f206164646040820152637265737360e01b606082015260800190565b60208082526025908201527f45524332303a2064656372656173656420616c6c6f77616e63652062656c6f77604082015264207a65726f60d81b606082015260800190565b90815260200190565b60ff91909116815260200190565b6000821982111561095f5761095f6109b6565b500190565b600082821015610976576109766109b6565b500390565b60028104600182168061098f57607f821691505b602082108114156109b057634e487b7160e01b600052602260045260246000fd5b50919050565b634e487b7160e01b600052601160045260246000fdfea2646970667358221220ad029aea928da05073eef0e656252a3b514e00704b86dce0d582350fb5a9539d64736f6c63430008000033",
  "immutableReferences": {},
  "source": "// SPDX-License-Identifier: MIT\npragma solidity ^0.8.0;\n\nimport \"@openzeppelin/contracts/token/ERC20/ERC20.sol\";\n\ncontract ERC20WithString is ERC20 {\n\n    string private _devName;\n\n    constructor(string memory devName, string memory erc20Name, string memory symbol) ERC20(erc20Name, symbol)  {\n        _devName = devName;\n        _mint(msg.sender, 1000000*10**18);\n    }\n\n    function getDevName() external view returns(string memory){\n     return _devName;\n    }\n }",
  "sourcePath": "/home/santiago/projects/idex/src/ethereum/contracts/ERC20WithString.sol",
  "compiler": {
    "name": "solc",
    "version": "0.8.0+commit.c7dfd78e.Emscripten.clang"
  },
  "schemaVersion": "3.3.2",
  "updatedAt": "2021-04-15T17:16:15.169Z",
  "networkType": "ethereum",
  "devdoc": {
    "kind": "dev",
    "methods": {
      "allowance(address,address)": {
        "details": "See {IERC20-allowance}."
      },
      "approve(address,uint256)": {
        "details": "See {IERC20-approve}. Requirements: - `spender` cannot be the zero address."
      },
      "balanceOf(address)": {
        "details": "See {IERC20-balanceOf}."
      },
      "decimals()": {
        "details": "Returns the number of decimals used to get its user representation. For example, if `decimals` equals `2`, a balance of `505` tokens should be displayed to a user as `5,05` (`505 / 10 ** 2`). Tokens usually opt for a value of 18, imitating the relationship between Ether and Wei. This is the value {ERC20} uses, unless this function is overloaded; NOTE: This information is only used for _display_ purposes: it in no way affects any of the arithmetic of the contract, including {IERC20-balanceOf} and {IERC20-transfer}."
      },
      "decreaseAllowance(address,uint256)": {
        "details": "Atomically decreases the allowance granted to `spender` by the caller. This is an alternative to {approve} that can be used as a mitigation for problems described in {IERC20-approve}. Emits an {Approval} event indicating the updated allowance. Requirements: - `spender` cannot be the zero address. - `spender` must have allowance for the caller of at least `subtractedValue`."
      },
      "increaseAllowance(address,uint256)": {
        "details": "Atomically increases the allowance granted to `spender` by the caller. This is an alternative to {approve} that can be used as a mitigation for problems described in {IERC20-approve}. Emits an {Approval} event indicating the updated allowance. Requirements: - `spender` cannot be the zero address."
      },
      "name()": {
        "details": "Returns the name of the token."
      },
      "symbol()": {
        "details": "Returns the symbol of the token, usually a shorter version of the name."
      },
      "totalSupply()": {
        "details": "See {IERC20-totalSupply}."
      },
      "transfer(address,uint256)": {
        "details": "See {IERC20-transfer}. Requirements: - `recipient` cannot be the zero address. - the caller must have a balance of at least `amount`."
      },
      "transferFrom(address,address,uint256)": {
        "details": "See {IERC20-transferFrom}. Emits an {Approval} event indicating the updated allowance. This is not required by the EIP. See the note at the beginning of {ERC20}. Requirements: - `sender` and `recipient` cannot be the zero address. - `sender` must have a balance of at least `amount`. - the caller must have allowance for ``sender``'s tokens of at least `amount`."
      }
    },
    "version": 1
  },
  "userdoc": {
    "kind": "user",
    "methods": {},
    "version": 1
  }
}